:020000020000FC
:040000000C9422003A
:040010000C948B00C1
:100040000C94A6000FEF0DBF18E01EBF3F065B4FDC
:10005000666D7D077F6F00E80093610001E000930B
:1000600061000E94B7000CEF07B91FE018B90FEF4D
:1000700004B910E015B90FEF10E00AB91BB900E0A0
:100080000093C10002E00093680003E000936C005D
:1000900001E000936E0078943EEFF0E0ECE45491C0
:1000A0007727750F5BB9429A00E0813061F04436E2
:1000B000E1F744270395F0E0ECE4E00F5F36B1F0A0
:1000C00054910C9455008827429B0C946C00459BDE
:1000D0000C9471000C945500429A45985BB90C94AD
:1000E00055004298459A7BB90C9455000027F0E0E2
:1000F000ECE4549193955BB9F0E0ECE4E90F749172
:100100007D3719F07BB90C9455009927F0E0ECE4A9
:1001100074910C9455000F930FB70F930E94B10088
:10012000309B0C949A00319B0C94A0000F910FBF50
:100130000F9118951F30D1F3139515B90C949600B3
:100140001030A1F31A9515B90C9496000F930FB7C0
:100150000F930EE906BD439583950F910FBF0F9145
:1001600018952EEF2A95F1F73A95D9F7089505E0FD
:0801700005BD0EE906BD08956E
:00000001FF
